:040000008A11FD2F35
:100EDC00831203130714F930F0000000F00B732F8A
:100EEC00772F00008312031307101930F100AB3079
:100EFC00F000F00B7F2FF10B7F2F842F0800831253
:100F0C00031307140D30F100FB30F000F00B8C2FA5
:100F1C00F10B8C2F912F8312031307100D30F1005E
:100F2C00FB30F000F00B982FF10B982F9D2F080041
:100F3C00FF30831603138500FF308600FF308700D7
:100F4C00831203179E019F01831603130515831249
:100F5C0003171E15831603130514831203171E148F
:100F6C008316031307108710831203139F171F1385
:100F7C00831603131F088F3910389F008312031335
:100F8C001F14C82FC92F0000831203131F08C33965
:100F9C0008389F009F149F18D12F1E08F301F307E8
:100FAC00831603131E08F201F2077308803AFF0040
:100FBC0080307F02031DE42FAB307202031CEA2F3A
:100FCC008A116E278A11C72F7308803AFF00803070
:100FDC007F02031DF32F6E3072020318F92F8A1152
:100FEC0085278A11C72F831203130710C72F83017C
:040FFC008A119E2F89
:02400E00F4F0CC
:00000001FF
