:040000008A11FD2F35
:100EDA00831203130714F930F0000000F00B722F8D
:100EEA00762F00008312031307101930F100AB307C
:100EFA00F000F00B7E2FF10B7E2F832F0800831258
:100F0A00031307140D30F100FB30F000F00B8B2FA8
:100F1A00F10B8B2F902F8312031307100D30F10062
:100F2A00FB30F000F00B972FF10B972F9C2F080046
:100F3A00FF30831603138500FF308600FF308700D9
:100F4A00831203179E019F0183160313051583124B
:100F5A0003171E15831603138516831203179E168D
:100F6A0083160313071087108613831203139F1720
:100F7A001F13831603131F088F3910389F0083121B
:100F8A0003131F08C33908389F001F14CC2FCD2F15
:100F9A000000831203139F149F18D12F1E08F30118
:100FAA00F307831603131E08F201F2077308803A47
:100FBA00FF0080307F02031DE42FAB307202031C56
:100FCA00EA2F8A116D278A11CB2F7308803AFF0006
:100FDA0080307F02031DF32F6E3072020318F92F3F
:100FEA008A1184278A11CB2F831203130710CB2F60
:060FFA0083018A119D2F06
:02400E00F4F0CC
:00000001FF
